{
  "@pythnetwork/pyth-sdk-solidity/PythUtils.sol": {
    "PythUtils": {
      "abi": [
        {
          "inputs": [],
          "name": "CombinedPriceOverflow",
          "type": "error"
        },
        {
          "inputs": [],
          "name": "ExponentOverflow",
          "type": "error"
        },
        {
          "inputs": [],
          "name": "InvalidInputExpo",
          "type": "error"
        },
        {
          "inputs": [],
          "name": "NegativeInputPrice",
          "type": "error"
        },
        {
          "inputs": [],
          "name": "PRECISION",
          "outputs": [
            {
              "internalType": "uint8",
              "name": "",
              "type": "uint8"
            }
          ],
          "stateMutability": "view",
          "type": "function"
        },
        {
          "inputs": [
            {
              "internalType": "int64",
              "name": "price",
              "type": "int64"
            },
            {
              "internalType": "int32",
              "name": "expo",
              "type": "int32"
            },
            {
              "internalType": "uint8",
              "name": "targetDecimals",
              "type": "uint8"
            }
          ],
          "name": "convertToUint",
          "outputs": [
            {
              "internalType": "uint256",
              "name": "",
              "type": "uint256"
            }
          ],
          "stateMutability": "pure",
          "type": "function"
        },
        {
          "inputs": [
            {
              "internalType": "int64",
              "name": "price1",
              "type": "int64"
            },
            {
              "internalType": "int32",
              "name": "expo1",
              "type": "int32"
            },
            {
              "internalType": "int64",
              "name": "price2",
              "type": "int64"
            },
            {
              "internalType": "int32",
              "name": "expo2",
              "type": "int32"
            },
            {
              "internalType": "int32",
              "name": "targetExponent",
              "type": "int32"
            }
          ],
          "name": "deriveCrossRate",
          "outputs": [
            {
              "internalType": "uint256",
              "name": "crossRate",
              "type": "uint256"
            }
          ],
          "stateMutability": "pure",
          "type": "function"
        }
      ],
      "evm": {
        "bytecode": {
          "linkReferences": {},
          "object": "610c2b610053600b82828239805160001a607314610046577f4e487b7100000000000000000000000000000000000000000000000000000000600052600060045260246000fd5b30600052607381538281f3fe730000000000000000000000000000000000000000301460806040526004361061004b5760003560e01c8063aaf5eb6814610050578063b55522b21461006e578063c88a190d1461009e575b600080fd5b6100586100ce565b60405161006591906106a5565b60405180910390f35b61008860048036038101906100839190610763565b6100d3565b60405161009591906107cf565b60405180910390f35b6100b860048036038101906100b391906107ea565b6102d6565b6040516100c591906107cf565b60405180910390f35b602481565b6000808460070b1215610112576040517f4db089c000000000000000000000000000000000000000000000000000000000815260040160405180910390fd5b7fffffffffffffffffffffffffffffffffffffffffffffffffffffffffffffff018360030b121561016f576040517f6a345a2800000000000000000000000000000000000000000000000000000000815260040160405180910390fd5b6000838360ff166101809190610894565b9050603a8160030b13806101b657507fffffffffffffffffffffffffffffffffffffffffffffffffffffffffffffffc68160030b125b156101ed576040517f96c1d04c00000000000000000000000000000000000000000000000000000000815260040160405180910390fd5b60008567ffffffffffffffff16905060008260030b1315610268576000806102218385600a61021c9190610a33565b6104f5565b915091508161025c576040517f30442cd800000000000000000000000000000000000000000000000000000000815260040160405180910390fd5b809450505050506102cf565b60008061028c8361027b8660030b61051e565b600a6102879190610a7e565b610535565b91509150816102c7576040517f30442cd800000000000000000000000000000000000000000000000000000000815260040160405180910390fd5b809450505050505b9392505050565b6000808660070b12806102ec575060008460070b125b15610323576040517f4db089c000000000000000000000000000000000000000000000000000000000815260040160405180910390fd5b7fffffffffffffffffffffffffffffffffffffffffffffffffffffffffffffff018560030b128061037657507fffffffffffffffffffffffffffffffffffffffffffffffffffffffffffffff018360030b125b806103a357507fffffffffffffffffffffffffffffffffffffffffffffffffffffffffffffff018260030b125b156103da576040517f6a345a2800000000000000000000000000000000000000000000000000000000815260040160405180910390fd5b600082846103e89190610894565b866103f39190610ac9565b60030b9050603a8160070b138061042c57507fffffffffffffffffffffffffffffffffffffffffffffffffffffffffffffffc68160070b125b15610463576040517f96c1d04c00000000000000000000000000000000000000000000000000000000815260040160405180910390fd5b6000808260070b13156104a25761049b8867ffffffffffffffff1683600a61048b9190610b39565b8867ffffffffffffffff1661054a565b90506104e7565b6104e48867ffffffffffffffff1660018867ffffffffffffffff166104c98660070b61051e565b600a6104d59190610b39565b6104df9190610b84565b61054a565b90505b809250505095945050505050565b600080600083850290508415848683041417925061051283610632565b81029150509250929050565b60008060ff83901d90508081840118915050919050565b60008060008311915082840490509250929050565b6000806000610559868661063e565b915091506000820361057f5783818161057557610574610bc6565b5b049250505061062b565b81841161059f5761059e610599600086146012601161065d565b610677565b5b600084868809905081811183039250808203915060008560000386169050808604955080830492506001818260000304019050808402831792506000600287600302189050808702600203810290508087026002038102905080870260020381029050808702600203810290508087026002038102905080870260020381029050808402955050505050505b9392505050565b60008115159050919050565b6000806000198385098385029150818110828203039250509250929050565b600061066884610632565b82841802821890509392505050565b634e487b71600052806020526024601cfd5b600060ff82169050919050565b61069f81610689565b82525050565b60006020820190506106ba6000830184610696565b92915050565b600080fd5b60008160070b9050919050565b6106db816106c5565b81146106e657600080fd5b50565b6000813590506106f8816106d2565b92915050565b60008160030b9050919050565b610714816106fe565b811461071f57600080fd5b50565b6000813590506107318161070b565b92915050565b61074081610689565b811461074b57600080fd5b50565b60008135905061075d81610737565b92915050565b60008060006060848603121561077c5761077b6106c0565b5b600061078a868287016106e9565b935050602061079b86828701610722565b92505060406107ac8682870161074e565b9150509250925092565b6000819050919050565b6107c9816107b6565b82525050565b60006020820190506107e460008301846107c0565b92915050565b600080600080600060a08688031215610806576108056106c0565b5b6000610814888289016106e9565b955050602061082588828901610722565b9450506040610836888289016106e9565b935050606061084788828901610722565b925050608061085888828901610722565b9150509295509295909350565b7f4e487b7100000000000000000000000000000000000000000000000000000000600052601160045260246000fd5b600061089f826106fe565b91506108aa836106fe565b925082820190507fffffffffffffffffffffffffffffffffffffffffffffffffffffffff800000008112637fffffff821317156108ea576108e9610865565b5b92915050565b60008160011c9050919050565b6000808291508390505b60018511156109475780860481111561092357610922610865565b5b60018516156109325780820291505b8081029050610940856108f0565b9450610907565b94509492505050565b6000826109605760019050610a1c565b8161096e5760009050610a1c565b8160018114610984576002811461098e576109bd565b6001915050610a1c565b60ff8411156109a05761099f610865565b5b8360020a9150848211156109b7576109b6610865565b5b50610a1c565b5060208310610133831016604e8410600b84101617156109f25782820a9050838111156109ed576109ec610865565b5b610a1c565b6109ff84848460016108fd565b92509050818404811115610a1657610a15610865565b5b81810290505b9392505050565b600063ffffffff82169050919050565b6000610a3e826107b6565b9150610a4983610a23565b9250610a767fffffffffffffffffffffffffffffffffffffffffffffffffffffffffffffffff8484610950565b905092915050565b6000610a89826107b6565b9150610a94836107b6565b9250610ac17fffffffffffffffffffffffffffffffffffffffffffffffffffffffffffffffff8484610950565b905092915050565b6000610ad4826106fe565b9150610adf836106fe565b92508282039050637fffffff81137fffffffffffffffffffffffffffffffffffffffffffffffffffffffff8000000082121715610b1f57610b1e610865565b5b92915050565b600067ffffffffffffffff82169050919050565b6000610b44826107b6565b9150610b4f83610b25565b9250610b7c7fffffffffffffffffffffffffffffffffffffffffffffffffffffffffffffffff8484610950565b905092915050565b6000610b8f826107b6565b9150610b9a836107b6565b9250828202610ba8816107b6565b91508282048414831517610bbf57610bbe610865565b5b5092915050565b7f4e487b7100000000000000000000000000000000000000000000000000000000600052601260045260246000fdfea2646970667358221220068863223717ea23c1e152dddd4deae82c5d6d9cb44e2d4758eda12029dcd9fb64736f6c63430008180033",
          "opcodes": "PUSH2 0xC2B PUSH2 0x53 PUSH1 0xB DUP3 DUP3 DUP3 CODECOPY DUP1 MLOAD PUSH1 0x0 BYTE PUSH1 0x73 EQ PUSH2 0x46 JUMPI PUSH32 0x4E487B7100000000000000000000000000000000000000000000000000000000 PUSH1 0x0 MSTORE PUSH1 0x0 PUSH1 0x4 MSTORE PUSH1 0x24 PUSH1 0x0 REVERT JUMPDEST ADDRESS PUSH1 0x0 MSTORE PUSH1 0x73 DUP2 MSTORE8 DUP3 DUP2 RETURN INVALID PUSH20 0x0 ADDRESS EQ PUSH1 0x80 PUSH1 0x40 MSTORE PUSH1 0x4 CALLDATASIZE LT PUSH2 0x4B JUMPI PUSH1 0x0 CALLDATALOAD PUSH1 0xE0 SHR DUP1 PUSH4 0xAAF5EB68 EQ PUSH2 0x50 JUMPI DUP1 PUSH4 0xB55522B2 EQ PUSH2 0x6E JUMPI DUP1 PUSH4 0xC88A190D EQ PUSH2 0x9E JUMPI JUMPDEST PUSH1 0x0 DUP1 REVERT JUMPDEST PUSH2 0x58 PUSH2 0xCE JUMP JUMPDEST PUSH1 0x40 MLOAD PUSH2 0x65 SWAP2 SWAP1 PUSH2 0x6A5 JUMP JUMPDEST PUSH1 0x40 MLOAD DUP1 SWAP2 SUB SWAP1 RETURN JUMPDEST PUSH2 0x88 PUSH1 0x4 DUP1 CALLDATASIZE SUB DUP2 ADD SWAP1 PUSH2 0x83 SWAP2 SWAP1 PUSH2 0x763 JUMP JUMPDEST PUSH2 0xD3 JUMP JUMPDEST PUSH1 0x40 MLOAD PUSH2 0x95 SWAP2 SWAP1 PUSH2 0x7CF JUMP JUMPDEST PUSH1 0x40 MLOAD DUP1 SWAP2 SUB SWAP1 RETURN JUMPDEST PUSH2 0xB8 PUSH1 0x4 DUP1 CALLDATASIZE SUB DUP2 ADD SWAP1 PUSH2 0xB3 SWAP2 SWAP1 PUSH2 0x7EA JUMP JUMPDEST PUSH2 0x2D6 JUMP JUMPDEST PUSH1 0x40 MLOAD PUSH2 0xC5 SWAP2 SWAP1 PUSH2 0x7CF JUMP JUMPDEST PUSH1 0x40 MLOAD DUP1 SWAP2 SUB SWAP1 RETURN JUMPDEST PUSH1 0x24 DUP2 JUMP JUMPDEST PUSH1 0x0 DUP1 DUP5 PUSH1 0x7 SIGNEXTEND SLT ISZERO PUSH2 0x112 JUMPI PUSH1 0x40 MLOAD PUSH32 0x4DB089C000000000000000000000000000000000000000000000000000000000 DUP2 MSTORE PUSH1 0x4 ADD PUSH1 0x40 MLOAD DUP1 SWAP2 SUB SWAP1 REVERT JUMPDEST PUSH32 0xFFFFFFFFFFFFFFFFFFFFFFFFFFFFFFFFFFFFFFFFFFFFFFFFFFFFFFFFFFFFFF01 DUP4 PUSH1 0x3 SIGNEXTEND SLT ISZERO PUSH2 0x16F JUMPI PUSH1 0x40 MLOAD PUSH32 0x6A345A2800000000000000000000000000000000000000000000000000000000 DUP2 MSTORE PUSH1 0x4 ADD PUSH1 0x40 MLOAD DUP1 SWAP2 SUB SWAP1 REVERT JUMPDEST PUSH1 0x0 DUP4 DUP4 PUSH1 0xFF AND PUSH2 0x180 SWAP2 SWAP1 PUSH2 0x894 JUMP JUMPDEST SWAP1 POP PUSH1 0x3A DUP2 PUSH1 0x3 SIGNEXTEND SGT DUP1 PUSH2 0x1B6 JUMPI POP PUSH32 0xFFFFFFFFFFFFFFFFFFFFFFFFFFFFFFFFFFFFFFFFFFFFFFFFFFFFFFFFFFFFFFC6 DUP2 PUSH1 0x3 SIGNEXTEND SLT JUMPDEST ISZERO PUSH2 0x1ED JUMPI PUSH1 0x40 MLOAD PUSH32 0x96C1D04C00000000000000000000000000000000000000000000000000000000 DUP2 MSTORE PUSH1 0x4 ADD PUSH1 0x40 MLOAD DUP1 SWAP2 SUB SWAP1 REVERT JUMPDEST PUSH1 0x0 DUP6 PUSH8 0xFFFFFFFFFFFFFFFF AND SWAP1 POP PUSH1 0x0 DUP3 PUSH1 0x3 SIGNEXTEND SGT ISZERO PUSH2 0x268 JUMPI PUSH1 0x0 DUP1 PUSH2 0x221 DUP4 DUP6 PUSH1 0xA PUSH2 0x21C SWAP2 SWAP1 PUSH2 0xA33 JUMP JUMPDEST PUSH2 0x4F5 JUMP JUMPDEST SWAP2 POP SWAP2 POP DUP2 PUSH2 0x25C JUMPI PUSH1 0x40 MLOAD PUSH32 0x30442CD800000000000000000000000000000000000000000000000000000000 DUP2 MSTORE PUSH1 0x4 ADD PUSH1 0x40 MLOAD DUP1 SWAP2 SUB SWAP1 REVERT JUMPDEST DUP1 SWAP5 POP POP POP POP POP PUSH2 0x2CF JUMP JUMPDEST PUSH1 0x0 DUP1 PUSH2 0x28C DUP4 PUSH2 0x27B DUP7 PUSH1 0x3 SIGNEXTEND PUSH2 0x51E JUMP JUMPDEST PUSH1 0xA PUSH2 0x287 SWAP2 SWAP1 PUSH2 0xA7E JUMP JUMPDEST PUSH2 0x535 JUMP JUMPDEST SWAP2 POP SWAP2 POP DUP2 PUSH2 0x2C7 JUMPI PUSH1 0x40 MLOAD PUSH32 0x30442CD800000000000000000000000000000000000000000000000000000000 DUP2 MSTORE PUSH1 0x4 ADD PUSH1 0x40 MLOAD DUP1 SWAP2 SUB SWAP1 REVERT JUMPDEST DUP1 SWAP5 POP POP POP POP POP JUMPDEST SWAP4 SWAP3 POP POP POP JUMP JUMPDEST PUSH1 0x0 DUP1 DUP7 PUSH1 0x7 SIGNEXTEND SLT DUP1 PUSH2 0x2EC JUMPI POP PUSH1 0x0 DUP5 PUSH1 0x7 SIGNEXTEND SLT JUMPDEST ISZERO PUSH2 0x323 JUMPI PUSH1 0x40 MLOAD PUSH32 0x4DB089C000000000000000000000000000000000000000000000000000000000 DUP2 MSTORE PUSH1 0x4 ADD PUSH1 0x40 MLOAD DUP1 SWAP2 SUB SWAP1 REVERT JUMPDEST PUSH32 0xFFFFFFFFFFFFFFFFFFFFFFFFFFFFFFFFFFFFFFFFFFFFFFFFFFFFFFFFFFFFFF01 DUP6 PUSH1 0x3 SIGNEXTEND SLT DUP1 PUSH2 0x376 JUMPI POP PUSH32 0xFFFFFFFFFFFFFFFFFFFFFFFFFFFFFFFFFFFFFFFFFFFFFFFFFFFFFFFFFFFFFF01 DUP4 PUSH1 0x3 SIGNEXTEND SLT JUMPDEST DUP1 PUSH2 0x3A3 JUMPI POP PUSH32 0xFFFFFFFFFFFFFFFFFFFFFFFFFFFFFFFFFFFFFFFFFFFFFFFFFFFFFFFFFFFFFF01 DUP3 PUSH1 0x3 SIGNEXTEND SLT JUMPDEST ISZERO PUSH2 0x3DA JUMPI PUSH1 0x40 MLOAD PUSH32 0x6A345A2800000000000000000000000000000000000000000000000000000000 DUP2 MSTORE PUSH1 0x4 ADD PUSH1 0x40 MLOAD DUP1 SWAP2 SUB SWAP1 REVERT JUMPDEST PUSH1 0x0 DUP3 DUP5 PUSH2 0x3E8 SWAP2 SWAP1 PUSH2 0x894 JUMP JUMPDEST DUP7 PUSH2 0x3F3 SWAP2 SWAP1 PUSH2 0xAC9 JUMP JUMPDEST PUSH1 0x3 SIGNEXTEND SWAP1 POP PUSH1 0x3A DUP2 PUSH1 0x7 SIGNEXTEND SGT DUP1 PUSH2 0x42C JUMPI POP PUSH32 0xFFFFFFFFFFFFFFFFFFFFFFFFFFFFFFFFFFFFFFFFFFFFFFFFFFFFFFFFFFFFFFC6 DUP2 PUSH1 0x7 SIGNEXTEND SLT JUMPDEST ISZERO PUSH2 0x463 JUMPI PUSH1 0x40 MLOAD PUSH32 0x96C1D04C00000000000000000000000000000000000000000000000000000000 DUP2 MSTORE PUSH1 0x4 ADD PUSH1 0x40 MLOAD DUP1 SWAP2 SUB SWAP1 REVERT JUMPDEST PUSH1 0x0 DUP1 DUP3 PUSH1 0x7 SIGNEXTEND SGT ISZERO PUSH2 0x4A2 JUMPI PUSH2 0x49B DUP9 PUSH8 0xFFFFFFFFFFFFFFFF AND DUP4 PUSH1 0xA PUSH2 0x48B SWAP2 SWAP1 PUSH2 0xB39 JUMP JUMPDEST DUP9 PUSH8 0xFFFFFFFFFFFFFFFF AND PUSH2 0x54A JUMP JUMPDEST SWAP1 POP PUSH2 0x4E7 JUMP JUMPDEST PUSH2 0x4E4 DUP9 PUSH8 0xFFFFFFFFFFFFFFFF AND PUSH1 0x1 DUP9 PUSH8 0xFFFFFFFFFFFFFFFF AND PUSH2 0x4C9 DUP7 PUSH1 0x7 SIGNEXTEND PUSH2 0x51E JUMP JUMPDEST PUSH1 0xA PUSH2 0x4D5 SWAP2 SWAP1 PUSH2 0xB39 JUMP JUMPDEST PUSH2 0x4DF SWAP2 SWAP1 PUSH2 0xB84 JUMP JUMPDEST PUSH2 0x54A JUMP JUMPDEST SWAP1 POP JUMPDEST DUP1 SWAP3 POP POP POP SWAP6 SWAP5 POP POP POP POP POP JUMP JUMPDEST PUSH1 0x0 DUP1 PUSH1 0x0 DUP4 DUP6 MUL SWAP1 POP DUP5 ISZERO DUP5 DUP7 DUP4 DIV EQ OR SWAP3 POP PUSH2 0x512 DUP4 PUSH2 0x632 JUMP JUMPDEST DUP2 MUL SWAP2 POP POP SWAP3 POP SWAP3 SWAP1 POP JUMP JUMPDEST PUSH1 0x0 DUP1 PUSH1 0xFF DUP4 SWAP1 SAR SWAP1 POP DUP1 DUP2 DUP5 ADD XOR SWAP2 POP POP SWAP2 SWAP1 POP JUMP JUMPDEST PUSH1 0x0 DUP1 PUSH1 0x0 DUP4 GT SWAP2 POP DUP3 DUP5 DIV SWAP1 POP SWAP3 POP SWAP3 SWAP1 POP JUMP JUMPDEST PUSH1 0x0 DUP1 PUSH1 0x0 PUSH2 0x559 DUP7 DUP7 PUSH2 0x63E JUMP JUMPDEST SWAP2 POP SWAP2 POP PUSH1 0x0 DUP3 SUB PUSH2 0x57F JUMPI DUP4 DUP2 DUP2 PUSH2 0x575 JUMPI PUSH2 0x574 PUSH2 0xBC6 JUMP JUMPDEST JUMPDEST DIV SWAP3 POP POP POP PUSH2 0x62B JUMP JUMPDEST DUP2 DUP5 GT PUSH2 0x59F JUMPI PUSH2 0x59E PUSH2 0x599 PUSH1 0x0 DUP7 EQ PUSH1 0x12 PUSH1 0x11 PUSH2 0x65D JUMP JUMPDEST PUSH2 0x677 JUMP JUMPDEST JUMPDEST PUSH1 0x0 DUP5 DUP7 DUP9 MULMOD SWAP1 POP DUP2 DUP2 GT DUP4 SUB SWAP3 POP DUP1 DUP3 SUB SWAP2 POP PUSH1 0x0 DUP6 PUSH1 0x0 SUB DUP7 AND SWAP1 POP DUP1 DUP7 DIV SWAP6 POP DUP1 DUP4 DIV SWAP3 POP PUSH1 0x1 DUP2 DUP3 PUSH1 0x0 SUB DIV ADD SWAP1 POP DUP1 DUP5 MUL DUP4 OR SWAP3 POP PUSH1 0x0 PUSH1 0x2 DUP8 PUSH1 0x3 MUL XOR SWAP1 POP DUP1 DUP8 MUL PUSH1 0x2 SUB DUP2 MUL SWAP1 POP DUP1 DUP8 MUL PUSH1 0x2 SUB DUP2 MUL SWAP1 POP DUP1 DUP8 MUL PUSH1 0x2 SUB DUP2 MUL SWAP1 POP DUP1 DUP8 MUL PUSH1 0x2 SUB DUP2 MUL SWAP1 POP DUP1 DUP8 MUL PUSH1 0x2 SUB DUP2 MUL SWAP1 POP DUP1 DUP8 MUL PUSH1 0x2 SUB DUP2 MUL SWAP1 POP DUP1 DUP5 MUL SWAP6 POP POP POP POP POP POP JUMPDEST SWAP4 SWAP3 POP POP POP JUMP JUMPDEST PUSH1 0x0 DUP2 ISZERO ISZERO SWAP1 POP SWAP2 SWAP1 POP JUMP JUMPDEST PUSH1 0x0 DUP1 PUSH1 0x0 NOT DUP4 DUP6 MULMOD DUP4 DUP6 MUL SWAP2 POP DUP2 DUP2 LT DUP3 DUP3 SUB SUB SWAP3 POP POP SWAP3 POP SWAP3 SWAP1 POP JUMP JUMPDEST PUSH1 0x0 PUSH2 0x668 DUP5 PUSH2 0x632 JUMP JUMPDEST DUP3 DUP5 XOR MUL DUP3 XOR SWAP1 POP SWAP4 SWAP3 POP POP POP JUMP JUMPDEST PUSH4 0x4E487B71 PUSH1 0x0 MSTORE DUP1 PUSH1 0x20 MSTORE PUSH1 0x24 PUSH1 0x1C REVERT JUMPDEST PUSH1 0x0 PUSH1 0xFF DUP3 AND SWAP1 POP SWAP2 SWAP1 POP JUMP JUMPDEST PUSH2 0x69F DUP2 PUSH2 0x689 JUMP JUMPDEST DUP3 MSTORE POP POP JUMP JUMPDEST PUSH1 0x0 PUSH1 0x20 DUP3 ADD SWAP1 POP PUSH2 0x6BA PUSH1 0x0 DUP4 ADD DUP5 PUSH2 0x696 JUMP JUMPDEST SWAP3 SWAP2 POP POP JUMP JUMPDEST PUSH1 0x0 DUP1 REVERT JUMPDEST PUSH1 0x0 DUP2 PUSH1 0x7 SIGNEXTEND SWAP1 POP SWAP2 SWAP1 POP JUMP JUMPDEST PUSH2 0x6DB DUP2 PUSH2 0x6C5 JUMP JUMPDEST DUP2 EQ PUSH2 0x6E6 JUMPI PUSH1 0x0 DUP1 REVERT JUMPDEST POP JUMP JUMPDEST PUSH1 0x0 DUP2 CALLDATALOAD SWAP1 POP PUSH2 0x6F8 DUP2 PUSH2 0x6D2 JUMP JUMPDEST SWAP3 SWAP2 POP POP JUMP JUMPDEST PUSH1 0x0 DUP2 PUSH1 0x3 SIGNEXTEND SWAP1 POP SWAP2 SWAP1 POP JUMP JUMPDEST PUSH2 0x714 DUP2 PUSH2 0x6FE JUMP JUMPDEST DUP2 EQ PUSH2 0x71F JUMPI PUSH1 0x0 DUP1 REVERT JUMPDEST POP JUMP JUMPDEST PUSH1 0x0 DUP2 CALLDATALOAD SWAP1 POP PUSH2 0x731 DUP2 PUSH2 0x70B JUMP JUMPDEST SWAP3 SWAP2 POP POP JUMP JUMPDEST PUSH2 0x740 DUP2 PUSH2 0x689 JUMP JUMPDEST DUP2 EQ PUSH2 0x74B JUMPI PUSH1 0x0 DUP1 REVERT JUMPDEST POP JUMP JUMPDEST PUSH1 0x0 DUP2 CALLDATALOAD SWAP1 POP PUSH2 0x75D DUP2 PUSH2 0x737 JUMP JUMPDEST SWAP3 SWAP2 POP POP JUMP JUMPDEST PUSH1 0x0 DUP1 PUSH1 0x0 PUSH1 0x60 DUP5 DUP7 SUB SLT ISZERO PUSH2 0x77C JUMPI PUSH2 0x77B PUSH2 0x6C0 JUMP JUMPDEST JUMPDEST PUSH1 0x0 PUSH2 0x78A DUP7 DUP3 DUP8 ADD PUSH2 0x6E9 JUMP JUMPDEST SWAP4 POP POP PUSH1 0x20 PUSH2 0x79B DUP7 DUP3 DUP8 ADD PUSH2 0x722 JUMP JUMPDEST SWAP3 POP POP PUSH1 0x40 PUSH2 0x7AC DUP7 DUP3 DUP8 ADD PUSH2 0x74E JUMP JUMPDEST SWAP2 POP POP SWAP3 POP SWAP3 POP SWAP3 JUMP JUMPDEST PUSH1 0x0 DUP2 SWAP1 POP SWAP2 SWAP1 POP JUMP JUMPDEST PUSH2 0x7C9 DUP2 PUSH2 0x7B6 JUMP JUMPDEST DUP3 MSTORE POP POP JUMP JUMPDEST PUSH1 0x0 PUSH1 0x20 DUP3 ADD SWAP1 POP PUSH2 0x7E4 PUSH1 0x0 DUP4 ADD DUP5 PUSH2 0x7C0 JUMP JUMPDEST SWAP3 SWAP2 POP POP JUMP JUMPDEST PUSH1 0x0 DUP1 PUSH1 0x0 DUP1 PUSH1 0x0 PUSH1 0xA0 DUP7 DUP9 SUB SLT ISZERO PUSH2 0x806 JUMPI PUSH2 0x805 PUSH2 0x6C0 JUMP JUMPDEST JUMPDEST PUSH1 0x0 PUSH2 0x814 DUP9 DUP3 DUP10 ADD PUSH2 0x6E9 JUMP JUMPDEST SWAP6 POP POP PUSH1 0x20 PUSH2 0x825 DUP9 DUP3 DUP10 ADD PUSH2 0x722 JUMP JUMPDEST SWAP5 POP POP PUSH1 0x40 PUSH2 0x836 DUP9 DUP3 DUP10 ADD PUSH2 0x6E9 JUMP JUMPDEST SWAP4 POP POP PUSH1 0x60 PUSH2 0x847 DUP9 DUP3 DUP10 ADD PUSH2 0x722 JUMP JUMPDEST SWAP3 POP POP PUSH1 0x80 PUSH2 0x858 DUP9 DUP3 DUP10 ADD PUSH2 0x722 JUMP JUMPDEST SWAP2 POP POP SWAP3 SWAP6 POP SWAP3 SWAP6 SWAP1 SWAP4 POP JUMP JUMPDEST PUSH32 0x4E487B7100000000000000000000000000000000000000000000000000000000 PUSH1 0x0 MSTORE PUSH1 0x11 PUSH1 0x4 MSTORE PUSH1 0x24 PUSH1 0x0 REVERT JUMPDEST PUSH1 0x0 PUSH2 0x89F DUP3 PUSH2 0x6FE JUMP JUMPDEST SWAP2 POP PUSH2 0x8AA DUP4 PUSH2 0x6FE JUMP JUMPDEST SWAP3 POP DUP3 DUP3 ADD SWAP1 POP PUSH32 0xFFFFFFFFFFFFFFFFFFFFFFFFFFFFFFFFFFFFFFFFFFFFFFFFFFFFFFFF80000000 DUP2 SLT PUSH4 0x7FFFFFFF DUP3 SGT OR ISZERO PUSH2 0x8EA JUMPI PUSH2 0x8E9 PUSH2 0x865 JUMP JUMPDEST JUMPDEST SWAP3 SWAP2 POP POP JUMP JUMPDEST PUSH1 0x0 DUP2 PUSH1 0x1 SHR SWAP1 POP SWAP2 SWAP1 POP JUMP JUMPDEST PUSH1 0x0 DUP1 DUP3 SWAP2 POP DUP4 SWAP1 POP JUMPDEST PUSH1 0x1 DUP6 GT ISZERO PUSH2 0x947 JUMPI DUP1 DUP7 DIV DUP2 GT ISZERO PUSH2 0x923 JUMPI PUSH2 0x922 PUSH2 0x865 JUMP JUMPDEST JUMPDEST PUSH1 0x1 DUP6 AND ISZERO PUSH2 0x932 JUMPI DUP1 DUP3 MUL SWAP2 POP JUMPDEST DUP1 DUP2 MUL SWAP1 POP PUSH2 0x940 DUP6 PUSH2 0x8F0 JUMP JUMPDEST SWAP5 POP PUSH2 0x907 JUMP JUMPDEST SWAP5 POP SWAP5 SWAP3 POP POP POP JUMP JUMPDEST PUSH1 0x0 DUP3 PUSH2 0x960 JUMPI PUSH1 0x1 SWAP1 POP PUSH2 0xA1C JUMP JUMPDEST DUP2 PUSH2 0x96E JUMPI PUSH1 0x0 SWAP1 POP PUSH2 0xA1C JUMP JUMPDEST DUP2 PUSH1 0x1 DUP2 EQ PUSH2 0x984 JUMPI PUSH1 0x2 DUP2 EQ PUSH2 0x98E JUMPI PUSH2 0x9BD JUMP JUMPDEST PUSH1 0x1 SWAP2 POP POP PUSH2 0xA1C JUMP JUMPDEST PUSH1 0xFF DUP5 GT ISZERO PUSH2 0x9A0 JUMPI PUSH2 0x99F PUSH2 0x865 JUMP JUMPDEST JUMPDEST DUP4 PUSH1 0x2 EXP SWAP2 POP DUP5 DUP3 GT ISZERO PUSH2 0x9B7 JUMPI PUSH2 0x9B6 PUSH2 0x865 JUMP JUMPDEST JUMPDEST POP PUSH2 0xA1C JUMP JUMPDEST POP PUSH1 0x20 DUP4 LT PUSH2 0x133 DUP4 LT AND PUSH1 0x4E DUP5 LT PUSH1 0xB DUP5 LT AND OR ISZERO PUSH2 0x9F2 JUMPI DUP3 DUP3 EXP SWAP1 POP DUP4 DUP2 GT ISZERO PUSH2 0x9ED JUMPI PUSH2 0x9EC PUSH2 0x865 JUMP JUMPDEST JUMPDEST PUSH2 0xA1C JUMP JUMPDEST PUSH2 0x9FF DUP5 DUP5 DUP5 PUSH1 0x1 PUSH2 0x8FD JUMP JUMPDEST SWAP3 POP SWAP1 POP DUP2 DUP5 DIV DUP2 GT ISZERO PUSH2 0xA16 JUMPI PUSH2 0xA15 PUSH2 0x865 JUMP JUMPDEST JUMPDEST DUP2 DUP2 MUL SWAP1 POP JUMPDEST SWAP4 SWAP3 POP POP POP JUMP JUMPDEST PUSH1 0x0 PUSH4 0xFFFFFFFF DUP3 AND SWAP1 POP SWAP2 SWAP1 POP JUMP JUMPDEST PUSH1 0x0 PUSH2 0xA3E DUP3 PUSH2 0x7B6 JUMP JUMPDEST SWAP2 POP PUSH2 0xA49 DUP4 PUSH2 0xA23 JUMP JUMPDEST SWAP3 POP PUSH2 0xA76 PUSH32 0xFFFFFFFFFFFFFFFFFFFFFFFFFFFFFFFFFFFFFFFFFFFFFFFFFFFFFFFFFFFFFFFF DUP5 DUP5 PUSH2 0x950 JUMP JUMPDEST SWAP1 POP SWAP3 SWAP2 POP POP JUMP JUMPDEST PUSH1 0x0 PUSH2 0xA89 DUP3 PUSH2 0x7B6 JUMP JUMPDEST SWAP2 POP PUSH2 0xA94 DUP4 PUSH2 0x7B6 JUMP JUMPDEST SWAP3 POP PUSH2 0xAC1 PUSH32 0xFFFFFFFFFFFFFFFFFFFFFFFFFFFFFFFFFFFFFFFFFFFFFFFFFFFFFFFFFFFFFFFF DUP5 DUP5 PUSH2 0x950 JUMP JUMPDEST SWAP1 POP SWAP3 SWAP2 POP POP JUMP JUMPDEST PUSH1 0x0 PUSH2 0xAD4 DUP3 PUSH2 0x6FE JUMP JUMPDEST SWAP2 POP PUSH2 0xADF DUP4 PUSH2 0x6FE JUMP JUMPDEST SWAP3 POP DUP3 DUP3 SUB SWAP1 POP PUSH4 0x7FFFFFFF DUP2 SGT PUSH32 0xFFFFFFFFFFFFFFFFFFFFFFFFFFFFFFFFFFFFFFFFFFFFFFFFFFFFFFFF80000000 DUP3 SLT OR ISZERO PUSH2 0xB1F JUMPI PUSH2 0xB1E PUSH2 0x865 JUMP JUMPDEST JUMPDEST SWAP3 SWAP2 POP POP JUMP JUMPDEST PUSH1 0x0 PUSH8 0xFFFFFFFFFFFFFFFF DUP3 AND SWAP1 POP SWAP2 SWAP1 POP JUMP JUMPDEST PUSH1 0x0 PUSH2 0xB44 DUP3 PUSH2 0x7B6 JUMP JUMPDEST SWAP2 POP PUSH2 0xB4F DUP4 PUSH2 0xB25 JUMP JUMPDEST SWAP3 POP PUSH2 0xB7C PUSH32 0xFFFFFFFFFFFFFFFFFFFFFFFFFFFFFFFFFFFFFFFFFFFFFFFFFFFFFFFFFFFFFFFF DUP5 DUP5 PUSH2 0x950 JUMP JUMPDEST SWAP1 POP SWAP3 SWAP2 POP POP JUMP JUMPDEST PUSH1 0x0 PUSH2 0xB8F DUP3 PUSH2 0x7B6 JUMP JUMPDEST SWAP2 POP PUSH2 0xB9A DUP4 PUSH2 0x7B6 JUMP JUMPDEST SWAP3 POP DUP3 DUP3 MUL PUSH2 0xBA8 DUP2 PUSH2 0x7B6 JUMP JUMPDEST SWAP2 POP DUP3 DUP3 DIV DUP5 EQ DUP4 ISZERO OR PUSH2 0xBBF JUMPI PUSH2 0xBBE PUSH2 0x865 JUMP JUMPDEST JUMPDEST POP SWAP3 SWAP2 POP POP JUMP JUMPDEST PUSH32 0x4E487B7100000000000000000000000000000000000000000000000000000000 PUSH1 0x0 MSTORE PUSH1 0x12 PUSH1 0x4 MSTORE PUSH1 0x24 PUSH1 0x0 REVERT INVALID LOG2 PUSH5 0x6970667358 0x22 SLT KECCAK256 MOD DUP9 PUSH4 0x223717EA 0x23 0xC1 0xE1 MSTORE 0xDD 0xDD 0x4D 0xEA 0xE8 0x2C TSTORE PUSH14 0x9CB44E2D4758EDA12029DCD9FB64 PUSH20 0x6F6C634300081800330000000000000000000000 "
        },
        "methodIdentifiers": {
          "PRECISION()": "aaf5eb68",
          "convertToUint(int64,int32,uint8)": "b55522b2",
          "deriveCrossRate(int64,int32,int64,int32,int32)": "c88a190d"
        }
      }
    }
  }
}