{
  "_format": "hh-sol-artifact-1",
  "contractName": "IntermediaryContract",
  "sourceName": "contracts/IntermediaryContract.sol",
  "abi": [
    {
      "inputs": [],
      "stateMutability": "nonpayable",
      "type": "constructor"
    },
    {
      "inputs": [
        {
          "internalType": "address",
          "name": "owner",
          "type": "address"
        }
      ],
      "name": "OwnableInvalidOwner",
      "type": "error"
    },
    {
      "inputs": [
        {
          "internalType": "address",
          "name": "account",
          "type": "address"
        }
      ],
      "name": "OwnableUnauthorizedAccount",
      "type": "error"
    },
    {
      "inputs": [],
      "name": "ReentrancyGuardReentrantCall",
      "type": "error"
    },
    {
      "inputs": [
        {
          "internalType": "address",
          "name": "token",
          "type": "address"
        }
      ],
      "name": "SafeERC20FailedOperation",
      "type": "error"
    },
    {
      "anonymous": false,
      "inputs": [
        {
          "indexed": true,
          "internalType": "uint256",
          "name": "planId",
          "type": "uint256"
        },
        {
          "indexed": true,
          "internalType": "address",
          "name": "member",
          "type": "address"
        },
        {
          "indexed": false,
          "internalType": "uint256",
          "name": "amount",
          "type": "uint256"
        },
        {
          "indexed": false,
          "internalType": "address",
          "name": "token",
          "type": "address"
        }
      ],
      "name": "ContributionReceived",
      "type": "event"
    },
    {
      "anonymous": false,
      "inputs": [
        {
          "indexed": true,
          "internalType": "uint256",
          "name": "planId",
          "type": "uint256"
        },
        {
          "indexed": false,
          "internalType": "uint256",
          "name": "totalInvested",
          "type": "uint256"
        }
      ],
      "name": "InvestmentExecuted",
      "type": "event"
    },
    {
      "anonymous": false,
      "inputs": [
        {
          "indexed": true,
          "internalType": "uint256",
          "name": "planId",
          "type": "uint256"
        },
        {
          "indexed": false,
          "internalType": "address[]",
          "name": "vaults",
          "type": "address[]"
        },
        {
          "indexed": false,
          "internalType": "uint256[]",
          "name": "amounts",
          "type": "uint256[]"
        },
        {
          "indexed": false,
          "internalType": "address[]",
          "name": "tokens",
          "type": "address[]"
        },
        {
          "indexed": false,
          "internalType": "uint256",
          "name": "totalAmount",
          "type": "uint256"
        }
      ],
      "name": "InvestmentPlanCreated",
      "type": "event"
    },
    {
      "anonymous": false,
      "inputs": [
        {
          "indexed": true,
          "internalType": "address",
          "name": "previousOwner",
          "type": "address"
        },
        {
          "indexed": true,
          "internalType": "address",
          "name": "newOwner",
          "type": "address"
        }
      ],
      "name": "OwnershipTransferred",
      "type": "event"
    },
    {
      "anonymous": false,
      "inputs": [
        {
          "indexed": true,
          "internalType": "uint256",
          "name": "planId",
          "type": "uint256"
        }
      ],
      "name": "PlanExpired",
      "type": "event"
    },
    {
      "inputs": [],
      "name": "CONTRIBUTION_DEADLINE",
      "outputs": [
        {
          "internalType": "uint256",
          "name": "",
          "type": "uint256"
        }
      ],
      "stateMutability": "view",
      "type": "function"
    },
    {
      "inputs": [
        {
          "internalType": "uint256",
          "name": "_planId",
          "type": "uint256"
        }
      ],
      "name": "canExecutePlan",
      "outputs": [
        {
          "internalType": "bool",
          "name": "",
          "type": "bool"
        }
      ],
      "stateMutability": "view",
      "type": "function"
    },
    {
      "inputs": [
        {
          "internalType": "uint256",
          "name": "_planId",
          "type": "uint256"
        },
        {
          "internalType": "address",
          "name": "_token",
          "type": "address"
        },
        {
          "internalType": "uint256",
          "name": "_amount",
          "type": "uint256"
        }
      ],
      "name": "contributeToPlan",
      "outputs": [],
      "stateMutability": "nonpayable",
      "type": "function"
    },
    {
      "inputs": [
        {
          "internalType": "address[]",
          "name": "_vaults",
          "type": "address[]"
        },
        {
          "internalType": "uint256[]",
          "name": "_amounts",
          "type": "uint256[]"
        },
        {
          "internalType": "address[]",
          "name": "_tokens",
          "type": "address[]"
        },
        {
          "internalType": "address[]",
          "name": "_members",
          "type": "address[]"
        },
        {
          "internalType": "uint256",
          "name": "_totalAmount",
          "type": "uint256"
        }
      ],
      "name": "createInvestmentPlan",
      "outputs": [
        {
          "internalType": "uint256",
          "name": "",
          "type": "uint256"
        }
      ],
      "stateMutability": "nonpayable",
      "type": "function"
    },
    {
      "inputs": [
        {
          "internalType": "address",
          "name": "_token",
          "type": "address"
        },
        {
          "internalType": "uint256",
          "name": "_amount",
          "type": "uint256"
        }
      ],
      "name": "emergencyWithdraw",
      "outputs": [],
      "stateMutability": "nonpayable",
      "type": "function"
    },
    {
      "inputs": [
        {
          "internalType": "uint256",
          "name": "_planId",
          "type": "uint256"
        }
      ],
      "name": "executeInvestmentPlan",
      "outputs": [],
      "stateMutability": "nonpayable",
      "type": "function"
    },
    {
      "inputs": [
        {
          "internalType": "uint256",
          "name": "_planId",
          "type": "uint256"
        }
      ],
      "name": "getPlanContributions",
      "outputs": [
        {
          "components": [
            {
              "internalType": "address",
              "name": "member",
              "type": "address"
            },
            {
              "internalType": "uint256",
              "name": "amount",
              "type": "uint256"
            },
            {
              "internalType": "bool",
              "name": "contributed",
              "type": "bool"
            }
          ],
          "internalType": "struct IntermediaryContract.MemberContribution[]",
          "name": "",
          "type": "tuple[]"
        }
      ],
      "stateMutability": "view",
      "type": "function"
    },
    {
      "inputs": [
        {
          "internalType": "uint256",
          "name": "_planId",
          "type": "uint256"
        }
      ],
      "name": "getPlanDetails",
      "outputs": [
        {
          "internalType": "address[]",
          "name": "vaults",
          "type": "address[]"
        },
        {
          "internalType": "uint256[]",
          "name": "amounts",
          "type": "uint256[]"
        },
        {
          "internalType": "address[]",
          "name": "tokens",
          "type": "address[]"
        },
        {
          "internalType": "uint256",
          "name": "totalAmount",
          "type": "uint256"
        },
        {
          "internalType": "bool",
          "name": "executed",
          "type": "bool"
        },
        {
          "internalType": "uint256",
          "name": "deadline",
          "type": "uint256"
        }
      ],
      "stateMutability": "view",
      "type": "function"
    },
    {
      "inputs": [
        {
          "internalType": "uint256",
          "name": "",
          "type": "uint256"
        },
        {
          "internalType": "address",
          "name": "",
          "type": "address"
        }
      ],
      "name": "hasContributed",
      "outputs": [
        {
          "internalType": "bool",
          "name": "",
          "type": "bool"
        }
      ],
      "stateMutability": "view",
      "type": "function"
    },
    {
      "inputs": [
        {
          "internalType": "uint256",
          "name": "",
          "type": "uint256"
        }
      ],
      "name": "investmentPlans",
      "outputs": [
        {
          "internalType": "uint256",
          "name": "totalAmount",
          "type": "uint256"
        },
        {
          "internalType": "bool",
          "name": "executed",
          "type": "bool"
        },
        {
          "internalType": "uint256",
          "name": "deadline",
          "type": "uint256"
        }
      ],
      "stateMutability": "view",
      "type": "function"
    },
    {
      "inputs": [],
      "name": "owner",
      "outputs": [
        {
          "internalType": "address",
          "name": "",
          "type": "address"
        }
      ],
      "stateMutability": "view",
      "type": "function"
    },
    {
      "inputs": [
        {
          "internalType": "uint256",
          "name": "",
          "type": "uint256"
        },
        {
          "internalType": "uint256",
          "name": "",
          "type": "uint256"
        }
      ],
      "name": "planContributions",
      "outputs": [
        {
          "internalType": "address",
          "name": "member",
          "type": "address"
        },
        {
          "internalType": "uint256",
          "name": "amount",
          "type": "uint256"
        },
        {
          "internalType": "bool",
          "name": "contributed",
          "type": "bool"
        }
      ],
      "stateMutability": "view",
      "type": "function"
    },
    {
      "inputs": [],
      "name": "planCounter",
      "outputs": [
        {
          "internalType": "uint256",
          "name": "",
          "type": "uint256"
        }
      ],
      "stateMutability": "view",
      "type": "function"
    },
    {
      "inputs": [],
      "name": "renounceOwnership",
      "outputs": [],
      "stateMutability": "nonpayable",
      "type": "function"
    },
    {
      "inputs": [
        {
          "internalType": "address",
          "name": "newOwner",
          "type": "address"
        }
      ],
      "name": "transferOwnership",
      "outputs": [],
      "stateMutability": "nonpayable",
      "type": "function"
    }
  ],
  "bytecode": "0x60806040523480156200001157600080fd5b50336001600081905550600073ffffffffffffffffffffffffffffffffffffffff168173ffffffffffffffffffffffffffffffffffffffff1603620000905760006040517f1e4fbdf7000000000000000000000000000000000000000000000000000000008152600401620000879190620001b3565b60405180910390fd5b620000a181620000a860201b60201c565b50620001d0565b6000600160009054906101000a900473ffffffffffffffffffffffffffffffffffffffff16905081600160006101000a81548173ffffffffffffffffffffffffffffffffffffffff021916908373ffffffffffffffffffffffffffffffffffffffff1602179055508173ffffffffffffffffffffffffffffffffffffffff168173ffffffffffffffffffffffffffffffffffffffff167f8be0079c531659141344cd1fd0a4f28419497f9722a3daafe3b4186f6b6457e060405160405180910390a35050565b600073ffffffffffffffffffffffffffffffffffffffff82169050919050565b60006200019b826200016e565b9050919050565b620001ad816200018e565b82525050565b6000602082019050620001ca6000830184620001a2565b92915050565b612ace80620001e06000396000f3fe608060405234801561001057600080fd5b50600436106100f55760003560e01c806395ccea6711610097578063b5b96ae011610066578063b5b96ae0146102a1578063f2fde38b146102d1578063f91e9efa146102ed578063fa5b284e1461030b576100f5565b806395ccea67146102005780639b5596651461021c578063a36a38ed1461024e578063ad5abed81461026c576100f5565b8063676f3388116100d3578063676f338814610176578063684ae9ce146101a8578063715018a6146101d85780638da5cb5b146101e2576100f5565b8063185826a6146100fa57806332b2c4141461012a57806363570f6614610146575b600080fd5b610114600480360381019061010f9190611a93565b610327565b6040516101219190611c1c565b60405180910390f35b610144600480360381019061013f9190611a93565b610458565b005b610160600480360381019061015b9190611a93565b6108c3565b60405161016d9190611c4d565b60405180910390f35b610190600480360381019061018b9190611a93565b610a6b565b60405161019f93929190611c77565b60405180910390f35b6101c260048036038101906101bd9190611ef6565b610aa2565b6040516101cf9190611fe1565b60405180910390f35b6101e0610ddf565b005b6101ea610df3565b6040516101f7919061200b565b60405180910390f35b61021a60048036038101906102159190612026565b610e1d565b005b61023660048036038101906102319190612066565b610e5b565b604051610245939291906120a6565b60405180910390f35b610256610ecf565b6040516102639190611fe1565b60405180910390f35b61028660048036038101906102819190611a93565b610ed5565b6040516102989695949392919061223b565b60405180910390f35b6102bb60048036038101906102b691906122b1565b61111c565b6040516102c89190611c4d565b60405180910390f35b6102eb60048036038101906102e691906122f1565b61114b565b005b6102f56111d1565b6040516103029190611fe1565b60405180910390f35b6103256004803603810190610320919061231e565b6111d8565b005b6060600554821061036d576040517f08c379a0000000000000000000000000000000000000000000000000000000008152600401610364906123ce565b60405180910390fd5b60036000838152602001908152602001600020805480602002602001604051908101604052809291908181526020016000905b8282101561044d57838290600052602060002090600302016040518060600160405290816000820160009054906101000a900473ffffffffffffffffffffffffffffffffffffffff1673ffffffffffffffffffffffffffffffffffffffff1673ffffffffffffffffffffffffffffffffffffffff168152602001600182015481526020016002820160009054906101000a900460ff161515151581525050815260200190600101906103a0565b505050509050919050565b61046061160d565b60055481106104a4576040517f08c379a000000000000000000000000000000000000000000000000000000000815260040161049b906123ce565b60405180910390fd5b6002600082815260200190815260200160002060040160009054906101000a900460ff1615610508576040517f08c379a00000000000000000000000000000000000000000000000000000000081526004016104ff9061243a565b60405180910390fd5b6002600082815260200190815260200160002060050154421115610561576040517f08c379a0000000000000000000000000000000000000000000000000000000008152600401610558906124a6565b60405180910390fd5b6000600260008381526020019081526020016000209050600060036000848152602001908152602001600020905060005b818054905081101561061c578181815481106105b1576105b06124c6565b5b906000526020600020906003020160020160009054906101000a900460ff1661060f576040517f08c379a000000000000000000000000000000000000000000000000000000000815260040161060690612541565b60405180910390fd5b8080600101915050610592565b5060018260040160006101000a81548160ff02191690831515021790555060005b8260000180549050811015610881576000836001018281548110610664576106636124c6565b5b906000526020600020015411156108745782600201818154811061068b5761068a6124c6565b5b9060005260206000200160009054906101000a900473ffffffffffffffffffffffffffffffffffffffff1673ffffffffffffffffffffffffffffffffffffffff1663095ea7b38460000183815481106106e7576106e66124c6565b5b9060005260206000200160009054906101000a900473ffffffffffffffffffffffffffffffffffffffff16856001018481548110610728576107276124c6565b5b90600052602060002001546040518363ffffffff1660e01b8152600401610750929190612561565b6020604051808303816000875af115801561076f573d6000803e3d6000fd5b505050506040513d601f19601f8201168201806040525081019061079391906125b6565b508260000181815481106107aa576107a96124c6565b5b9060005260206000200160009054906101000a900473ffffffffffffffffffffffffffffffffffffffff1673ffffffffffffffffffffffffffffffffffffffff16636e553f65846001018381548110610806576108056124c6565b5b9060005260206000200154306040518363ffffffff1660e01b815260040161082f9291906125e3565b6020604051808303816000875af115801561084e573d6000803e3d6000fd5b505050506040513d601f19601f820116820180604052508101906108729190612621565b505b808060010191505061063d565b50827f0903ef10062e82ce2de280a93473d253a0858231c913096c6d5b63bfb407fa3883600301546040516108b69190611fe1565b60405180910390a2505050565b600060055482106108d75760009050610a66565b6002600083815260200190815260200160002060040160009054906101000a900460ff16156109095760009050610a66565b60026000838152602001908152602001600020600501544211156109305760009050610a66565b600060036000848152602001908152602001600020805480602002602001604051908101604052809291908181526020016000905b82821015610a1257838290600052602060002090600302016040518060600160405290816000820160009054906101000a900473ffffffffffffffffffffffffffffffffffffffff1673ffffffffffffffffffffffffffffffffffffffff1673ffffffffffffffffffffffffffffffffffffffff168152602001600182015481526020016002820160009054906101000a900460ff16151515158152505081526020019060010190610965565b50505050905060005b8151811015610a5f57818181518110610a3757610a366124c6565b5b602002602001015160400151610a5257600092505050610a66565b8080600101915050610a1b565b5060019150505b919050565b60026020528060005260406000206000915090508060030154908060040160009054906101000a900460ff16908060050154905083565b6000610aac61160d565b8451865114610af0576040517f08c379a0000000000000000000000000000000000000000000000000000000008152600401610ae79061269a565b60405180910390fd5b8351865114610b34576040517f08c379a0000000000000000000000000000000000000000000000000000000008152600401610b2b90612706565b60405180910390fd5b60008211610b77576040517f08c379a0000000000000000000000000000000000000000000000000000000008152600401610b6e90612798565b60405180910390fd5b600060056000815480929190610b8c906127e7565b9190505590506040518060c001604052808881526020018781526020018681526020018481526020016000151581526020016201518042610bcd919061282f565b815250600260008381526020019081526020016000206000820151816000019080519060200190610bff929190611955565b506020820151816001019080519060200190610c1c9291906119df565b506040820151816002019080519060200190610c39929190611955565b506060820151816003015560808201518160040160006101000a81548160ff02191690831515021790555060a0820151816005015590505060005b8451811015610d9357600360008381526020019081526020016000206040518060600160405280878481518110610cae57610cad6124c6565b5b602002602001015173ffffffffffffffffffffffffffffffffffffffff168152602001875187610cde9190612892565b815260200160001515815250908060018154018082558091505060019003906000526020600020906003020160009091909190915060008201518160000160006101000a81548173ffffffffffffffffffffffffffffffffffffffff021916908373ffffffffffffffffffffffffffffffffffffffff1602179055506020820151816001015560408201518160020160006101000a81548160ff02191690831515021790555050508080600101915050610c74565b50807fe0c7505ea1364a3db15787b16ee843410e1cbcde07c1b80df2d8a126bc345ca788888887604051610dca94939291906128c3565b60405180910390a28091505095945050505050565b610de761160d565b610df16000611694565b565b6000600160009054906101000a900473ffffffffffffffffffffffffffffffffffffffff16905090565b610e2561160d565b610e57610e30610df3565b828473ffffffffffffffffffffffffffffffffffffffff1661175a9092919063ffffffff16565b5050565b60036020528160005260406000208181548110610e7757600080fd5b9060005260206000209060030201600091509150508060000160009054906101000a900473ffffffffffffffffffffffffffffffffffffffff16908060010154908060020160009054906101000a900460ff16905083565b60055481565b606080606060008060006005548710610f23576040517f08c379a0000000000000000000000000000000000000000000000000000000008152600401610f1a906123ce565b60405180910390fd5b6000600260008981526020019081526020016000206040518060c001604052908160008201805480602002602001604051908101604052809291908181526020018280548015610fc857602002820191906000526020600020905b8160009054906101000a900473ffffffffffffffffffffffffffffffffffffffff1673ffffffffffffffffffffffffffffffffffffffff1681526020019060010190808311610f7e575b505050505081526020016001820180548060200260200160405190810160405280929190818152602001828054801561102057602002820191906000526020600020905b81548152602001906001019080831161100c575b50505050508152602001600282018054806020026020016040519081016040528092919081815260200182805480156110ae57602002820191906000526020600020905b8160009054906101000a900473ffffffffffffffffffffffffffffffffffffffff1673ffffffffffffffffffffffffffffffffffffffff1681526020019060010190808311611064575b50505050508152602001600382015481526020016004820160009054906101000a900460ff161515151581526020016005820154815250509050806000015181602001518260400151836060015184608001518560a001519650965096509650965096505091939550919395565b60046020528160005260406000206020528060005260406000206000915091509054906101000a900460ff1681565b61115361160d565b600073ffffffffffffffffffffffffffffffffffffffff168173ffffffffffffffffffffffffffffffffffffffff16036111c55760006040517f1e4fbdf70000000000000000000000000000000000000000000000000000000081526004016111bc919061200b565b60405180910390fd5b6111ce81611694565b50565b6201518081565b6111e06117d9565b6005548310611224576040517f08c379a000000000000000000000000000000000000000000000000000000000815260040161121b906123ce565b60405180910390fd5b6002600084815260200190815260200160002060040160009054906101000a900460ff1615611288576040517f08c379a000000000000000000000000000000000000000000000000000000000815260040161127f9061243a565b60405180910390fd5b60026000848152602001908152602001600020600501544211156112e1576040517f08c379a00000000000000000000000000000000000000000000000000000000081526004016112d8906124a6565b60405180910390fd5b6004600084815260200190815260200160002060003373ffffffffffffffffffffffffffffffffffffffff1673ffffffffffffffffffffffffffffffffffffffff16815260200190815260200160002060009054906101000a900460ff161561137f576040517f08c379a000000000000000000000000000000000000000000000000000000000815260040161137690612969565b60405180910390fd5b60006003600085815260200190815260200160002090506000805b82805490508110156114d6573373ffffffffffffffffffffffffffffffffffffffff168382815481106113d0576113cf6124c6565b5b906000526020600020906003020160000160009054906101000a900473ffffffffffffffffffffffffffffffffffffffff1673ffffffffffffffffffffffffffffffffffffffff16036114c9578281815481106114305761142f6124c6565b5b9060005260206000209060030201600101548414611483576040517f08c379a000000000000000000000000000000000000000000000000000000000815260040161147a906129d5565b60405180910390fd5b6001838281548110611498576114976124c6565b5b906000526020600020906003020160020160006101000a81548160ff021916908315150217905550600191506114d6565b808060010191505061139a565b5080611517576040517f08c379a000000000000000000000000000000000000000000000000000000000815260040161150e90612a41565b60405180910390fd5b60016004600087815260200190815260200160002060003373ffffffffffffffffffffffffffffffffffffffff1673ffffffffffffffffffffffffffffffffffffffff16815260200190815260200160002060006101000a81548160ff0219169083151502179055506115ad3330858773ffffffffffffffffffffffffffffffffffffffff1661181f909392919063ffffffff16565b3373ffffffffffffffffffffffffffffffffffffffff16857f5659c698debcce5194eed7a5b9acd137fd6be07934a455f6948bbabcf07f4deb85876040516115f69291906125e3565b60405180910390a350506116086118a1565b505050565b6116156118ab565b73ffffffffffffffffffffffffffffffffffffffff16611633610df3565b73ffffffffffffffffffffffffffffffffffffffff1614611692576116566118ab565b6040517f118cdaa7000000000000000000000000000000000000000000000000000000008152600401611689919061200b565b60405180910390fd5b565b6000600160009054906101000a900473ffffffffffffffffffffffffffffffffffffffff16905081600160006101000a81548173ffffffffffffffffffffffffffffffffffffffff021916908373ffffffffffffffffffffffffffffffffffffffff1602179055508173ffffffffffffffffffffffffffffffffffffffff168173ffffffffffffffffffffffffffffffffffffffff167f8be0079c531659141344cd1fd0a4f28419497f9722a3daafe3b4186f6b6457e060405160405180910390a35050565b6117d4838473ffffffffffffffffffffffffffffffffffffffff1663a9059cbb858560405160240161178d929190612561565b604051602081830303815290604052915060e01b6020820180517bffffffffffffffffffffffffffffffffffffffffffffffffffffffff83818316178352505050506118b3565b505050565b600260005403611815576040517f3ee5aeb500000000000000000000000000000000000000000000000000000000815260040160405180910390fd5b6002600081905550565b61189b848573ffffffffffffffffffffffffffffffffffffffff166323b872dd86868660405160240161185493929190612a61565b604051602081830303815290604052915060e01b6020820180517bffffffffffffffffffffffffffffffffffffffffffffffffffffffff83818316178352505050506118b3565b50505050565b6001600081905550565b600033905090565b600080602060008451602086016000885af1806118d6576040513d6000823e3d81fd5b3d9250600051915050600082146118f157600181141561190d565b60008473ffffffffffffffffffffffffffffffffffffffff163b145b1561194f57836040517f5274afe7000000000000000000000000000000000000000000000000000000008152600401611946919061200b565b60405180910390fd5b50505050565b8280548282559060005260206000209081019282156119ce579160200282015b828111156119cd5782518260006101000a81548173ffffffffffffffffffffffffffffffffffffffff021916908373ffffffffffffffffffffffffffffffffffffffff16021790555091602001919060010190611975565b5b5090506119db9190611a2c565b5090565b828054828255906000526020600020908101928215611a1b579160200282015b82811115611a1a5782518255916020019190600101906119ff565b5b509050611a289190611a2c565b5090565b5b80821115611a45576000816000905550600101611a2d565b5090565b6000604051905090565b600080fd5b600080fd5b6000819050919050565b611a7081611a5d565b8114611a7b57600080fd5b50565b600081359050611a8d81611a67565b92915050565b600060208284031215611aa957611aa8611a53565b5b6000611ab784828501611a7e565b91505092915050565b600081519050919050565b600082825260208201905092915050565b6000819050602082019050919050565b600073ffffffffffffffffffffffffffffffffffffffff82169050919050565b6000611b1782611aec565b9050919050565b611b2781611b0c565b82525050565b611b3681611a5d565b82525050565b60008115159050919050565b611b5181611b3c565b82525050565b606082016000820151611b6d6000850182611b1e565b506020820151611b806020850182611b2d565b506040820151611b936040850182611b48565b50505050565b6000611ba58383611b57565b60608301905092915050565b6000602082019050919050565b6000611bc982611ac0565b611bd38185611acb565b9350611bde83611adc565b8060005b83811015611c0f578151611bf68882611b99565b9750611c0183611bb1565b925050600181019050611be2565b5085935050505092915050565b60006020820190508181036000830152611c368184611bbe565b905092915050565b611c4781611b3c565b82525050565b6000602082019050611c626000830184611c3e565b92915050565b611c7181611a5d565b82525050565b6000606082019050611c8c6000830186611c68565b611c996020830185611c3e565b611ca66040830184611c68565b949350505050565b600080fd5b6000601f19601f8301169050919050565b7f4e487b7100000000000000000000000000000000000000000000000000000000600052604160045260246000fd5b611cfc82611cb3565b810181811067ffffffffffffffff82111715611d1b57611d1a611cc4565b5b80604052505050565b6000611d2e611a49565b9050611d3a8282611cf3565b919050565b600067ffffffffffffffff821115611d5a57611d59611cc4565b5b602082029050602081019050919050565b600080fd5b611d7981611b0c565b8114611d8457600080fd5b50565b600081359050611d9681611d70565b92915050565b6000611daf611daa84611d3f565b611d24565b90508083825260208201905060208402830185811115611dd257611dd1611d6b565b5b835b81811015611dfb5780611de78882611d87565b845260208401935050602081019050611dd4565b5050509392505050565b600082601f830112611e1a57611e19611cae565b5b8135611e2a848260208601611d9c565b91505092915050565b600067ffffffffffffffff821115611e4e57611e4d611cc4565b5b602082029050602081019050919050565b6000611e72611e6d84611e33565b611d24565b90508083825260208201905060208402830185811115611e9557611e94611d6b565b5b835b81811015611ebe5780611eaa8882611a7e565b845260208401935050602081019050611e97565b5050509392505050565b600082601f830112611edd57611edc611cae565b5b8135611eed848260208601611e5f565b91505092915050565b600080600080600060a08688031215611f1257611f11611a53565b5b600086013567ffffffffffffffff811115611f3057611f2f611a58565b5b611f3c88828901611e05565b955050602086013567ffffffffffffffff811115611f5d57611f5c611a58565b5b611f6988828901611ec8565b945050604086013567ffffffffffffffff811115611f8a57611f89611a58565b5b611f9688828901611e05565b935050606086013567ffffffffffffffff811115611fb757611fb6611a58565b5b611fc388828901611e05565b9250506080611fd488828901611a7e565b9150509295509295909350565b6000602082019050611ff66000830184611c68565b92915050565b61200581611b0c565b82525050565b60006020820190506120206000830184611ffc565b92915050565b6000806040838503121561203d5761203c611a53565b5b600061204b85828601611d87565b925050602061205c85828601611a7e565b9150509250929050565b6000806040838503121561207d5761207c611a53565b5b600061208b85828601611a7e565b925050602061209c85828601611a7e565b9150509250929050565b60006060820190506120bb6000830186611ffc565b6120c86020830185611c68565b6120d56040830184611c3e565b949350505050565b600081519050919050565b600082825260208201905092915050565b6000819050602082019050919050565b60006121158383611b1e565b60208301905092915050565b6000602082019050919050565b6000612139826120dd565b61214381856120e8565b935061214e836120f9565b8060005b8381101561217f5781516121668882612109565b975061217183612121565b925050600181019050612152565b5085935050505092915050565b600081519050919050565b600082825260208201905092915050565b6000819050602082019050919050565b60006121c48383611b2d565b60208301905092915050565b6000602082019050919050565b60006121e88261218c565b6121f28185612197565b93506121fd836121a8565b8060005b8381101561222e57815161221588826121b8565b9750612220836121d0565b925050600181019050612201565b5085935050505092915050565b600060c0820190508181036000830152612255818961212e565b9050818103602083015261226981886121dd565b9050818103604083015261227d818761212e565b905061228c6060830186611c68565b6122996080830185611c3e565b6122a660a0830184611c68565b979650505050505050565b600080604083850312156122c8576122c7611a53565b5b60006122d685828601611a7e565b92505060206122e785828601611d87565b9150509250929050565b60006020828403121561230757612306611a53565b5b600061231584828501611d87565b91505092915050565b60008060006060848603121561233757612336611a53565b5b600061234586828701611a7e565b935050602061235686828701611d87565b925050604061236786828701611a7e565b9150509250925092565b600082825260208201905092915050565b7f506c616e20646f6573206e6f7420657869737400000000000000000000000000600082015250565b60006123b8601383612371565b91506123c382612382565b602082019050919050565b600060208201905081810360008301526123e7816123ab565b9050919050565b7f506c616e20616c72656164792065786563757465640000000000000000000000600082015250565b6000612424601583612371565b915061242f826123ee565b602082019050919050565b6000602082019050818103600083015261245381612417565b9050919050565b7f436f6e747269627574696f6e20646561646c696e652070617373656400000000600082015250565b6000612490601c83612371565b915061249b8261245a565b602082019050919050565b600060208201905081810360008301526124bf81612483565b9050919050565b7f4e487b7100000000000000000000000000000000000000000000000000000000600052603260045260246000fd5b7f4e6f7420616c6c206d656d62657273206861766520636f6e7472696275746564600082015250565b600061252b602083612371565b9150612536826124f5565b602082019050919050565b6000602082019050818103600083015261255a8161251e565b9050919050565b60006040820190506125766000830185611ffc565b6125836020830184611c68565b9392505050565b61259381611b3c565b811461259e57600080fd5b50565b6000815190506125b08161258a565b92915050565b6000602082840312156125cc576125cb611a53565b5b60006125da848285016125a1565b91505092915050565b60006040820190506125f86000830185611c68565b6126056020830184611ffc565b9392505050565b60008151905061261b81611a67565b92915050565b60006020828403121561263757612636611a53565b5b60006126458482850161260c565b91505092915050565b7f417272617973206c656e677468206d69736d6174636800000000000000000000600082015250565b6000612684601683612371565b915061268f8261264e565b602082019050919050565b600060208201905081810360008301526126b381612677565b9050919050565b7f546f6b656e206172726179206c656e677468206d69736d617463680000000000600082015250565b60006126f0601b83612371565b91506126fb826126ba565b602082019050919050565b6000602082019050818103600083015261271f816126e3565b9050919050565b7f546f74616c20616d6f756e74206d75737420626520677265617465722074686160008201527f6e20300000000000000000000000000000000000000000000000000000000000602082015250565b6000612782602383612371565b915061278d82612726565b604082019050919050565b600060208201905081810360008301526127b181612775565b9050919050565b7f4e487b7100000000000000000000000000000000000000000000000000000000600052601160045260246000fd5b60006127f282611a5d565b91507fffffffffffffffffffffffffffffffffffffffffffffffffffffffffffffffff8203612824576128236127b8565b5b600182019050919050565b600061283a82611a5d565b915061284583611a5d565b925082820190508082111561285d5761285c6127b8565b5b92915050565b7f4e487b7100000000000000000000000000000000000000000000000000000000600052601260045260246000fd5b600061289d82611a5d565b91506128a883611a5d565b9250826128b8576128b7612863565b5b828204905092915050565b600060808201905081810360008301526128dd818761212e565b905081810360208301526128f181866121dd565b90508181036040830152612905818561212e565b90506129146060830184611c68565b95945050505050565b7f416c726561647920636f6e747269627574656400000000000000000000000000600082015250565b6000612953601383612371565b915061295e8261291d565b602082019050919050565b6000602082019050818103600083015261298281612946565b9050919050565b7f496e636f727265637420636f6e747269627574696f6e20616d6f756e74000000600082015250565b60006129bf601d83612371565b91506129ca82612989565b602082019050919050565b600060208201905081810360008301526129ee816129b2565b9050919050565b7f4e6f742061206d656d626572206f66207468697320706c616e00000000000000600082015250565b6000612a2b601983612371565b9150612a36826129f5565b602082019050919050565b60006020820190508181036000830152612a5a81612a1e565b9050919050565b6000606082019050612a766000830186611ffc565b612a836020830185611ffc565b612a906040830184611c68565b94935050505056fea264697066735822122056c67708d7257cebb7219e6be5fce5f55bf563eab2b1183fcd62c965d8842bc764736f6c63430008180033",
  "linkReferences": {},
  "deployedLinkReferences": {}
}